{
  "_format": "hh-sol-artifact-1",
  "contractName": "Vault",
  "sourceName": "contracts/Vault.sol",
  "abi": [
    {
      "inputs": [
        {
          "internalType": "uint256",
          "name": "value",
          "type": "uint256"
        }
      ],
      "name": "BadRange",
      "type": "error"
    },
    {
      "inputs": [
        {
          "internalType": "bytes",
          "name": "swapTx",
          "type": "bytes"
        },
        {
          "internalType": "bytes",
          "name": "result",
          "type": "bytes"
        }
      ],
      "name": "DexAggSwap",
      "type": "error"
    },
    {
      "inputs": [
        {
          "internalType": "uint256",
          "name": "toMint",
          "type": "uint256"
        }
      ],
      "name": "HarvestTooLow",
      "type": "error"
    },
    {
      "inputs": [],
      "name": "InvalidDepositSwapToken",
      "type": "error"
    },
    {
      "inputs": [],
      "name": "InvalidRedeemSwapAmount",
      "type": "error"
    },
    {
      "inputs": [],
      "name": "InvalidRedeemSwapToken",
      "type": "error"
    },
    {
      "inputs": [
        {
          "internalType": "uint256",
          "name": "amount",
          "type": "uint256"
        }
      ],
      "name": "MaxAUM",
      "type": "error"
    },
    {
      "inputs": [
        {
          "internalType": "uint256",
          "name": "amount",
          "type": "uint256"
        }
      ],
      "name": "MaxDeposit",
      "type": "error"
    },
    {
      "inputs": [
        {
          "internalType": "uint256",
          "name": "amount",
          "type": "uint256"
        }
      ],
      "name": "MinDeposit",
      "type": "error"
    },
    {
      "inputs": [],
      "name": "MintZero",
      "type": "error"
    },
    {
      "inputs": [],
      "name": "Paused",
      "type": "error"
    },
    {
      "inputs": [
        {
          "internalType": "uint256",
          "name": "sumPosition",
          "type": "uint256"
        }
      ],
      "name": "PositionRange",
      "type": "error"
    },
    {
      "inputs": [],
      "name": "PriceFeedMatch",
      "type": "error"
    },
    {
      "inputs": [],
      "name": "PriceFeedPrecision",
      "type": "error"
    },
    {
      "inputs": [
        {
          "internalType": "uint256",
          "name": "worthBaseTokenDue",
          "type": "uint256"
        },
        {
          "internalType": "uint256",
          "name": "maxToRedeem",
          "type": "uint256"
        }
      ],
      "name": "RedeemMax",
      "type": "error"
    },
    {
      "inputs": [
        {
          "internalType": "uint256",
          "name": "worthBaseTokenDue",
          "type": "uint256"
        },
        {
          "internalType": "uint256",
          "name": "minToRedeem",
          "type": "uint256"
        }
      ],
      "name": "RedeemMin",
      "type": "error"
    },
    {
      "inputs": [
        {
          "internalType": "uint256",
          "name": "",
          "type": "uint256"
        }
      ],
      "name": "RedeemTooLow",
      "type": "error"
    },
    {
      "inputs": [
        {
          "internalType": "enum Vault.ActionType",
          "name": "action",
          "type": "uint8"
        }
      ],
      "name": "SwapExecution",
      "type": "error"
    },
    {
      "inputs": [
        {
          "internalType": "uint256",
          "name": "amountInWorth",
          "type": "uint256"
        },
        {
          "internalType": "uint256",
          "name": "amountOutWorth",
          "type": "uint256"
        }
      ],
      "name": "SwapOutput",
      "type": "error"
    },
    {
      "inputs": [
        {
          "internalType": "uint256",
          "name": "time",
          "type": "uint256"
        }
      ],
      "name": "TimeLock",
      "type": "error"
    },
    {
      "inputs": [],
      "name": "TokenPresent",
      "type": "error"
    },
    {
      "inputs": [
        {
          "internalType": "address",
          "name": "user",
          "type": "address"
        }
      ],
      "name": "Unauthorized",
      "type": "error"
    },
    {
      "inputs": [
        {
          "internalType": "address",
          "name": "token",
          "type": "address"
        }
      ],
      "name": "UnknownToken",
      "type": "error"
    },
    {
      "anonymous": false,
      "inputs": [
        {
          "indexed": false,
          "internalType": "address",
          "name": "newAsset",
          "type": "address"
        }
      ],
      "name": "AddAsset",
      "type": "event"
    },
    {
      "anonymous": false,
      "inputs": [
        {
          "indexed": false,
          "internalType": "uint256",
          "name": "baseTokenAmountIn",
          "type": "uint256"
        },
        {
          "indexed": false,
          "internalType": "uint256",
          "name": "sharesMinted",
          "type": "uint256"
        }
      ],
      "name": "Deposit",
      "type": "event"
    },
    {
      "anonymous": false,
      "inputs": [
        {
          "indexed": false,
          "internalType": "uint256",
          "name": "amountToDAO",
          "type": "uint256"
        },
        {
          "indexed": false,
          "internalType": "uint256",
          "name": "amountToStrategist",
          "type": "uint256"
        }
      ],
      "name": "HarvestManagementFees",
      "type": "event"
    },
    {
      "anonymous": false,
      "inputs": [
        {
          "indexed": false,
          "internalType": "uint256",
          "name": "amountToDAO",
          "type": "uint256"
        },
        {
          "indexed": false,
          "internalType": "uint256",
          "name": "amountToStrategist",
          "type": "uint256"
        }
      ],
      "name": "HarvestPerformanceFees",
      "type": "event"
    },
    {
      "anonymous": false,
      "inputs": [
        {
          "indexed": false,
          "internalType": "uint8",
          "name": "version",
          "type": "uint8"
        }
      ],
      "name": "Initialized",
      "type": "event"
    },
    {
      "anonymous": false,
      "inputs": [
        {
          "indexed": false,
          "internalType": "uint256[]",
          "name": "currentSignals",
          "type": "uint256[]"
        },
        {
          "indexed": false,
          "internalType": "uint256[]",
          "name": "desiredSignals",
          "type": "uint256[]"
        }
      ],
      "name": "Rebalance",
      "type": "event"
    },
    {
      "anonymous": false,
      "inputs": [
        {
          "indexed": false,
          "internalType": "uint256",
          "name": "amountReceived",
          "type": "uint256"
        },
        {
          "indexed": false,
          "internalType": "uint256",
          "name": "shareBurned",
          "type": "uint256"
        }
      ],
      "name": "Redeem",
      "type": "event"
    },
    {
      "anonymous": false,
      "inputs": [
        {
          "indexed": true,
          "internalType": "bytes32",
          "name": "role",
          "type": "bytes32"
        },
        {
          "indexed": true,
          "internalType": "bytes32",
          "name": "previousAdminRole",
          "type": "bytes32"
        },
        {
          "indexed": true,
          "internalType": "bytes32",
          "name": "newAdminRole",
          "type": "bytes32"
        }
      ],
      "name": "RoleAdminChanged",
      "type": "event"
    },
    {
      "anonymous": false,
      "inputs": [
        {
          "indexed": true,
          "internalType": "bytes32",
          "name": "role",
          "type": "bytes32"
        },
        {
          "indexed": true,
          "internalType": "address",
          "name": "account",
          "type": "address"
        },
        {
          "indexed": true,
          "internalType": "address",
          "name": "sender",
          "type": "address"
        }
      ],
      "name": "RoleGranted",
      "type": "event"
    },
    {
      "anonymous": false,
      "inputs": [
        {
          "indexed": true,
          "internalType": "bytes32",
          "name": "role",
          "type": "bytes32"
        },
        {
          "indexed": true,
          "internalType": "address",
          "name": "account",
          "type": "address"
        },
        {
          "indexed": true,
          "internalType": "address",
          "name": "sender",
          "type": "address"
        }
      ],
      "name": "RoleRevoked",
      "type": "event"
    },
    {
      "inputs": [],
      "name": "DEFAULT_ADMIN_ROLE",
      "outputs": [
        {
          "internalType": "bytes32",
          "name": "",
          "type": "bytes32"
        }
      ],
      "stateMutability": "view",
      "type": "function"
    },
    {
      "inputs": [],
      "name": "HARVESTER_ROLE",
      "outputs": [
        {
          "internalType": "bytes32",
          "name": "",
          "type": "bytes32"
        }
      ],
      "stateMutability": "view",
      "type": "function"
    },
    {
      "inputs": [],
      "name": "STRATEGIST_ROLE",
      "outputs": [
        {
          "internalType": "bytes32",
          "name": "",
          "type": "bytes32"
        }
      ],
      "stateMutability": "view",
      "type": "function"
    },
    {
      "inputs": [
        {
          "internalType": "address",
          "name": "_token",
          "type": "address"
        }
      ],
      "name": "addVaultAsset",
      "outputs": [],
      "stateMutability": "nonpayable",
      "type": "function"
    },
    {
      "inputs": [
        {
          "internalType": "uint256[]",
          "name": "_amounts",
          "type": "uint256[]"
        }
      ],
      "name": "approveForSwap",
      "outputs": [],
      "stateMutability": "nonpayable",
      "type": "function"
    },
    {
      "inputs": [
        {
          "internalType": "uint256",
          "name": "_baseTokenAmountIn",
          "type": "uint256"
        },
        {
          "internalType": "bytes[]",
          "name": "_swapTxs",
          "type": "bytes[]"
        }
      ],
      "name": "deposit",
      "outputs": [],
      "stateMutability": "nonpayable",
      "type": "function"
    },
    {
      "inputs": [],
      "name": "getConfigProps",
      "outputs": [
        {
          "components": [
            {
              "internalType": "bool",
              "name": "paused",
              "type": "bool"
            },
            {
              "internalType": "uint8",
              "name": "verified",
              "type": "uint8"
            },
            {
              "internalType": "string",
              "name": "name",
              "type": "string"
            },
            {
              "internalType": "string",
              "name": "description",
              "type": "string"
            }
          ],
          "internalType": "struct VLib.ConfigProps",
          "name": "",
          "type": "tuple"
        }
      ],
      "stateMutability": "view",
      "type": "function"
    },
    {
      "inputs": [],
      "name": "getConstantProps",
      "outputs": [
        {
          "components": [
            {
              "internalType": "address",
              "name": "factory",
              "type": "address"
            },
            {
              "internalType": "uint256",
              "name": "createdAtBlockNumber",
              "type": "uint256"
            },
            {
              "internalType": "address",
              "name": "share",
              "type": "address"
            }
          ],
          "internalType": "struct VLib.ConstantProps",
          "name": "",
          "type": "tuple"
        }
      ],
      "stateMutability": "view",
      "type": "function"
    },
    {
      "inputs": [],
      "name": "getFeesProps",
      "outputs": [
        {
          "components": [
            {
              "internalType": "address",
              "name": "beneficiary",
              "type": "address"
            },
            {
              "internalType": "uint256",
              "name": "exitFees",
              "type": "uint256"
            },
            {
              "internalType": "uint256",
              "name": "managementFeesRate",
              "type": "uint256"
            },
            {
              "internalType": "uint256",
              "name": "managementFeesToStrategist",
              "type": "uint256"
            },
            {
              "internalType": "uint256",
              "name": "performanceFeesRate",
              "type": "uint256"
            },
            {
              "internalType": "uint256",
              "name": "performanceFeesToStrategist",
              "type": "uint256"
            }
          ],
          "internalType": "struct VLib.FeesProps",
          "name": "",
          "type": "tuple"
        }
      ],
      "stateMutability": "view",
      "type": "function"
    },
    {
      "inputs": [],
      "name": "getHistoryProps",
      "outputs": [
        {
          "components": [
            {
              "internalType": "uint256",
              "name": "highWaterMark",
              "type": "uint256"
            },
            {
              "internalType": "uint256[]",
              "name": "prevRebalanceSignals",
              "type": "uint256[]"
            },
            {
              "internalType": "uint256",
              "name": "prevSwap",
              "type": "uint256"
            },
            {
              "internalType": "uint256",
              "name": "prevMngHarvest",
              "type": "uint256"
            }
          ],
          "internalType": "struct VLib.HistoryProps",
          "name": "",
          "type": "tuple"
        }
      ],
      "stateMutability": "view",
      "type": "function"
    },
    {
      "inputs": [
        {
          "internalType": "address",
          "name": "_priceFeed",
          "type": "address"
        }
      ],
      "name": "getLatestPrice",
      "outputs": [
        {
          "internalType": "uint256",
          "name": "",
          "type": "uint256"
        }
      ],
      "stateMutability": "view",
      "type": "function"
    },
    {
      "inputs": [],
      "name": "getManagementFees",
      "outputs": [
        {
          "internalType": "uint256",
          "name": "toMint",
          "type": "uint256"
        },
        {
          "internalType": "uint256",
          "name": "sharePrice",
          "type": "uint256"
        }
      ],
      "stateMutability": "view",
      "type": "function"
    },
    {
      "inputs": [],
      "name": "getPerformanceFees",
      "outputs": [
        {
          "internalType": "uint256",
          "name": "toMint",
          "type": "uint256"
        },
        {
          "internalType": "uint256",
          "name": "sharePrice",
          "type": "uint256"
        }
      ],
      "stateMutability": "view",
      "type": "function"
    },
    {
      "inputs": [
        {
          "internalType": "bytes32",
          "name": "role",
          "type": "bytes32"
        }
      ],
      "name": "getRoleAdmin",
      "outputs": [
        {
          "internalType": "bytes32",
          "name": "",
          "type": "bytes32"
        }
      ],
      "stateMutability": "view",
      "type": "function"
    },
    {
      "inputs": [
        {
          "internalType": "bytes32",
          "name": "role",
          "type": "bytes32"
        },
        {
          "internalType": "uint256",
          "name": "index",
          "type": "uint256"
        }
      ],
      "name": "getRoleMember",
      "outputs": [
        {
          "internalType": "address",
          "name": "",
          "type": "address"
        }
      ],
      "stateMutability": "view",
      "type": "function"
    },
    {
      "inputs": [
        {
          "internalType": "bytes32",
          "name": "role",
          "type": "bytes32"
        }
      ],
      "name": "getRoleMemberCount",
      "outputs": [
        {
          "internalType": "uint256",
          "name": "",
          "type": "uint256"
        }
      ],
      "stateMutability": "view",
      "type": "function"
    },
    {
      "inputs": [],
      "name": "getSecurityProps",
      "outputs": [
        {
          "components": [
            {
              "internalType": "uint256",
              "name": "maxAUM",
              "type": "uint256"
            },
            {
              "internalType": "uint256",
              "name": "maxLossSwap",
              "type": "uint256"
            },
            {
              "internalType": "uint256",
              "name": "minAmountDeposit",
              "type": "uint256"
            },
            {
              "internalType": "uint256",
              "name": "maxAmountDeposit",
              "type": "uint256"
            },
            {
              "internalType": "uint256",
              "name": "minFrequencySwap",
              "type": "uint256"
            },
            {
              "internalType": "uint256",
              "name": "minSecurityTime",
              "type": "uint256"
            },
            {
              "internalType": "uint256",
              "name": "minHarvestThreshold",
              "type": "uint256"
            }
          ],
          "internalType": "struct VLib.SecurityProps",
          "name": "",
          "type": "tuple"
        }
      ],
      "stateMutability": "view",
      "type": "function"
    },
    {
      "inputs": [],
      "name": "getVaultBalances",
      "outputs": [
        {
          "internalType": "uint256[]",
          "name": "balances",
          "type": "uint256[]"
        }
      ],
      "stateMutability": "view",
      "type": "function"
    },
    {
      "inputs": [],
      "name": "getVaultStatus",
      "outputs": [
        {
          "internalType": "uint256[]",
          "name": "positions",
          "type": "uint256[]"
        },
        {
          "internalType": "uint256",
          "name": "vvl",
          "type": "uint256"
        },
        {
          "internalType": "uint256",
          "name": "sharePrice",
          "type": "uint256"
        }
      ],
      "stateMutability": "view",
      "type": "function"
    },
    {
      "inputs": [
        {
          "internalType": "bytes32",
          "name": "role",
          "type": "bytes32"
        },
        {
          "internalType": "address",
          "name": "account",
          "type": "address"
        }
      ],
      "name": "grantRole",
      "outputs": [],
      "stateMutability": "nonpayable",
      "type": "function"
    },
    {
      "inputs": [],
      "name": "harvestManagementFees",
      "outputs": [],
      "stateMutability": "nonpayable",
      "type": "function"
    },
    {
      "inputs": [],
      "name": "harvestPerformanceFees",
      "outputs": [],
      "stateMutability": "nonpayable",
      "type": "function"
    },
    {
      "inputs": [
        {
          "internalType": "bytes32",
          "name": "role",
          "type": "bytes32"
        },
        {
          "internalType": "address",
          "name": "account",
          "type": "address"
        }
      ],
      "name": "hasRole",
      "outputs": [
        {
          "internalType": "bool",
          "name": "",
          "type": "bool"
        }
      ],
      "stateMutability": "view",
      "type": "function"
    },
    {
      "inputs": [
        {
          "internalType": "address[]",
          "name": "_tokensAddresses",
          "type": "address[]"
        },
        {
          "components": [
            {
              "internalType": "string",
              "name": "vaultName",
              "type": "string"
            },
            {
              "internalType": "string",
              "name": "description",
              "type": "string"
            },
            {
              "internalType": "string",
              "name": "shareName",
              "type": "string"
            },
            {
              "internalType": "string",
              "name": "shareSymbol",
              "type": "string"
            },
            {
              "internalType": "address",
              "name": "strategist",
              "type": "address"
            }
          ],
          "internalType": "struct VLib.CreationProps",
          "name": "_creationProps",
          "type": "tuple"
        },
        {
          "components": [
            {
              "internalType": "address",
              "name": "beneficiary",
              "type": "address"
            },
            {
              "internalType": "uint256",
              "name": "exitFees",
              "type": "uint256"
            },
            {
              "internalType": "uint256",
              "name": "managementFeesRate",
              "type": "uint256"
            },
            {
              "internalType": "uint256",
              "name": "managementFeesToStrategist",
              "type": "uint256"
            },
            {
              "internalType": "uint256",
              "name": "performanceFeesRate",
              "type": "uint256"
            },
            {
              "internalType": "uint256",
              "name": "performanceFeesToStrategist",
              "type": "uint256"
            }
          ],
          "internalType": "struct VLib.FeesProps",
          "name": "_feesProps",
          "type": "tuple"
        },
        {
          "components": [
            {
              "internalType": "uint256",
              "name": "maxAUM",
              "type": "uint256"
            },
            {
              "internalType": "uint256",
              "name": "maxLossSwap",
              "type": "uint256"
            },
            {
              "internalType": "uint256",
              "name": "minAmountDeposit",
              "type": "uint256"
            },
            {
              "internalType": "uint256",
              "name": "maxAmountDeposit",
              "type": "uint256"
            },
            {
              "internalType": "uint256",
              "name": "minFrequencySwap",
              "type": "uint256"
            },
            {
              "internalType": "uint256",
              "name": "minSecurityTime",
              "type": "uint256"
            },
            {
              "internalType": "uint256",
              "name": "minHarvestThreshold",
              "type": "uint256"
            }
          ],
          "internalType": "struct VLib.SecurityProps",
          "name": "_securityProps",
          "type": "tuple"
        }
      ],
      "name": "initialize",
      "outputs": [],
      "stateMutability": "nonpayable",
      "type": "function"
    },
    {
      "inputs": [
        {
          "internalType": "uint256[]",
          "name": "_signals",
          "type": "uint256[]"
        },
        {
          "internalType": "bytes[]",
          "name": "_swapTxs",
          "type": "bytes[]"
        }
      ],
      "name": "rebalance",
      "outputs": [],
      "stateMutability": "nonpayable",
      "type": "function"
    },
    {
      "inputs": [
        {
          "internalType": "uint256",
          "name": "_amountIn",
          "type": "uint256"
        },
        {
          "internalType": "bytes[]",
          "name": "_swapTxs",
          "type": "bytes[]"
        }
      ],
      "name": "redeem",
      "outputs": [],
      "stateMutability": "nonpayable",
      "type": "function"
    },
    {
      "inputs": [
        {
          "internalType": "uint256",
          "name": "_amountIn",
          "type": "uint256"
        }
      ],
      "name": "redeemEach",
      "outputs": [],
      "stateMutability": "nonpayable",
      "type": "function"
    },
    {
      "inputs": [
        {
          "internalType": "bytes32",
          "name": "role",
          "type": "bytes32"
        },
        {
          "internalType": "address",
          "name": "account",
          "type": "address"
        }
      ],
      "name": "renounceRole",
      "outputs": [],
      "stateMutability": "nonpayable",
      "type": "function"
    },
    {
      "inputs": [
        {
          "internalType": "bytes32",
          "name": "role",
          "type": "bytes32"
        },
        {
          "internalType": "address",
          "name": "account",
          "type": "address"
        }
      ],
      "name": "revokeRole",
      "outputs": [],
      "stateMutability": "nonpayable",
      "type": "function"
    },
    {
      "inputs": [
        {
          "components": [
            {
              "internalType": "bool",
              "name": "paused",
              "type": "bool"
            },
            {
              "internalType": "uint8",
              "name": "verified",
              "type": "uint8"
            },
            {
              "internalType": "string",
              "name": "name",
              "type": "string"
            },
            {
              "internalType": "string",
              "name": "description",
              "type": "string"
            }
          ],
          "internalType": "struct VLib.ConfigProps",
          "name": "_configProps",
          "type": "tuple"
        }
      ],
      "name": "setConfigProps",
      "outputs": [],
      "stateMutability": "nonpayable",
      "type": "function"
    },
    {
      "inputs": [
        {
          "components": [
            {
              "internalType": "address",
              "name": "beneficiary",
              "type": "address"
            },
            {
              "internalType": "uint256",
              "name": "exitFees",
              "type": "uint256"
            },
            {
              "internalType": "uint256",
              "name": "managementFeesRate",
              "type": "uint256"
            },
            {
              "internalType": "uint256",
              "name": "managementFeesToStrategist",
              "type": "uint256"
            },
            {
              "internalType": "uint256",
              "name": "performanceFeesRate",
              "type": "uint256"
            },
            {
              "internalType": "uint256",
              "name": "performanceFeesToStrategist",
              "type": "uint256"
            }
          ],
          "internalType": "struct VLib.FeesProps",
          "name": "_feesProps",
          "type": "tuple"
        }
      ],
      "name": "setFeesProps",
      "outputs": [],
      "stateMutability": "nonpayable",
      "type": "function"
    },
    {
      "inputs": [
        {
          "components": [
            {
              "internalType": "uint256",
              "name": "maxAUM",
              "type": "uint256"
            },
            {
              "internalType": "uint256",
              "name": "maxLossSwap",
              "type": "uint256"
            },
            {
              "internalType": "uint256",
              "name": "minAmountDeposit",
              "type": "uint256"
            },
            {
              "internalType": "uint256",
              "name": "maxAmountDeposit",
              "type": "uint256"
            },
            {
              "internalType": "uint256",
              "name": "minFrequencySwap",
              "type": "uint256"
            },
            {
              "internalType": "uint256",
              "name": "minSecurityTime",
              "type": "uint256"
            },
            {
              "internalType": "uint256",
              "name": "minHarvestThreshold",
              "type": "uint256"
            }
          ],
          "internalType": "struct VLib.SecurityProps",
          "name": "_securityProps",
          "type": "tuple"
        }
      ],
      "name": "setSecurityProps",
      "outputs": [],
      "stateMutability": "nonpayable",
      "type": "function"
    },
    {
      "inputs": [
        {
          "internalType": "bool",
          "name": "_status",
          "type": "bool"
        }
      ],
      "name": "setShareTransferability",
      "outputs": [],
      "stateMutability": "nonpayable",
      "type": "function"
    },
    {
      "inputs": [
        {
          "internalType": "bytes4",
          "name": "interfaceId",
          "type": "bytes4"
        }
      ],
      "name": "supportsInterface",
      "outputs": [
        {
          "internalType": "bool",
          "name": "",
          "type": "bool"
        }
      ],
      "stateMutability": "view",
      "type": "function"
    },
    {
      "inputs": [
        {
          "internalType": "uint256",
          "name": "",
          "type": "uint256"
        }
      ],
      "name": "tokens",
      "outputs": [
        {
          "internalType": "address",
          "name": "tokenAddress",
          "type": "address"
        },
        {
          "internalType": "address",
          "name": "priceFeedAddress",
          "type": "address"
        },
        {
          "internalType": "uint8",
          "name": "priceFeedPrecision",
          "type": "uint8"
        },
        {
          "internalType": "uint256",
          "name": "denominator",
          "type": "uint256"
        }
      ],
      "stateMutability": "view",
      "type": "function"
    },
    {
      "inputs": [],
      "name": "tokensLength",
      "outputs": [
        {
          "internalType": "uint256",
          "name": "",
          "type": "uint256"
        }
      ],
      "stateMutability": "view",
      "type": "function"
    }
  ],
  "bytecode": "0x608060405234801561001057600080fd5b50615da280620000216000396000f3fe608060405234801561001057600080fd5b50600436106101dc5760003560e01c8063811fe3ad11610105578063ca15c8731161009d578063ca15c8731461054c578063cf5bbaf81461055f578063d547741f14610572578063d92fc67b14610585578063f17934231461058d578063f2b51afe146105a0578063f3451f6c146105b3578063f51f3ab2146105c6578063ffab8573146105ce57600080fd5b8063811fe3ad146103f1578063830b4980146104725780639010d07c146104ca57806391d14854146104ea578063a217fddf146104fd578063a378a32414610505578063aede67ea1461051a578063bad5259714610531578063c3c058f41461053957600080fd5b806336568abe1161017857806336568abe146102cd5780634237d77d146102e05780634aea3c1c146102f55780634f64b2be1461030857806363a560ec1461034e5780636522e3f3146103635780636de4badc146103c15780637296ea59146103c95780637dedcf92146103dc57600080fd5b806301ffc9a7146101e15780630b2be31e1461020957806316345f181461021e578063223706851461023f57806323224ac814610254578063248a9ca3146102715780632f2ff15d1461029457806333d19e02146102a75780633616c889146102ba575b600080fd5b6101f46101ef366004614f01565b6105e1565b60405190151581526020015b60405180910390f35b61021c610217366004614f99565b61060c565b005b61023161022c366004615031565b61068d565b604051908152602001610200565b61024761070d565b6040516102009190615089565b61025c610846565b60408051928352602083019190915201610200565b61023161027f36600461509c565b60009081526065602052604090206001015490565b61021c6102a23660046150b5565b61095f565b61021c6102b5366004615173565b610989565b61021c6102c83660046151f2565b610b36565b61021c6102db3660046150b5565b61101b565b6102e8611099565b6040516102009190615295565b61021c610303366004615384565b61120f565b61031b61031636600461509c565b61127e565b604080516001600160a01b03958616815294909316602085015260ff909116918301919091526060820152608001610200565b610231600080516020615d2d83398151915281565b61036b6112ca565b6040516102009190600060e082019050825182526020830151602083015260408301516040830152606083015160608301526080830151608083015260a083015160a083015260c083015160c083015292915050565b61021c611356565b61021c6103d736600461543a565b6115ea565b6103e4611658565b6040516102009190615457565b6104426040805160608101825260008082526020820181905291810191909152506040805160608101825260fd546001600160a01b03908116825260fe54602083015260ff54169181019190915290565b6040805182516001600160a01b039081168252602080850151908301529282015190921690820152606001610200565b61047a61170c565b604051610200919081516001600160a01b031681526020808301519082015260408083015190820152606080830151908201526080808301519082015260a0918201519181019190915260c00190565b6104dd6104d83660046154c7565b61179a565b60405161020091906154e9565b6101f46104f83660046150b5565b6117b9565b610231600081565b610231600080516020615d4d83398151915281565b6105226117e4565b604051610200939291906154fd565b61025c611b67565b61021c610547366004615522565b611c56565b61023161055a36600461509c565b611e76565b61021c61056d36600461557d565b611e8d565b61021c6105803660046150b5565b6125f1565b60fb54610231565b61021c61059b366004615624565b612616565b61021c6105ae36600461509c565b612782565b61021c6105c1366004615031565b612bd1565b61021c612fe3565b61021c6105dc3660046151f2565b613263565b60006001600160e01b03198216635a05180f60e01b1480610606575061060682613846565b92915050565b60006106178161387b565b6113888260200151111561064f57816020015160405163031dc50960e61b815260040161064691815260200190565b60405180910390fd5b50805161010d55602081015161010e55604081015161010f5560608101516101105560808101516101115560a08101516101125560c0015161011355565b600080826001600160a01b031663feaf968c6040518163ffffffff1660e01b815260040160a06040518083038186803b1580156106c957600080fd5b505afa1580156106dd573d6000803e3d6000fd5b505050506040513d601f19601f8201168201806040525081019061070191906156c0565b50919695505050505050565b6060600061071a60fb5490565b9050806001600160401b0381111561073457610734614f2b565b60405190808252806020026020018201604052801561075d578160200160208202803683370190505b50915060005b8181101561084157600060fb828154811061078057610780615710565b60009182526020909120600390910201546040516370a0823160e01b81526001600160a01b03909116915081906370a08231906107c19030906004016154e9565b60206040518083038186803b1580156107d957600080fd5b505afa1580156107ed573d6000803e3d6000fd5b505050506040513d601f19601f820116820180604052508101906108119190615726565b84838151811061082357610823615710565b6020908102919091010152508061083981615755565b915050610763565b505090565b600080600060fd60020160009054906101000a90046001600160a01b03166001600160a01b03166318160ddd6040518163ffffffff1660e01b815260040160206040518083038186803b15801561089c57600080fd5b505afa1580156108b0573d6000803e3d6000fd5b505050506040513d601f19601f820116820180604052508101906108d49190615726565b90506108de6117e4565b61010054909450915050808311156109545761010b54600090612710906109096305f5e10086615770565b6109138588615792565b61091d91906157a9565b61092791906157a9565b6109319190615770565b9050836109426305f5e100836157a9565b61094c9190615770565b945050610959565b600093505b50509091565b60008281526065602052604090206001015461097a8161387b565b6109848383613888565b505050565b60006109948161387b565b60fd54604080516306ec4be960e41b815290516000926001600160a01b031691636ec4be90916004808301926020929190829003018186803b1580156109d957600080fd5b505afa1580156109ed573d6000803e3d6000fd5b505050506040513d601f19601f82011682018060405250810190610a1191906157c8565b9050600060fb805480602002602001604051908101604052809291908181526020016000905b82821015610a9f576000848152602090819020604080516080810182526003860290920180546001600160a01b03908116845260018083015491821685870152600160a01b90910460ff16928401929092526002015460608301529083529092019101610a37565b50505050905060005b8151811015610b2f57610aed836000848481518110610ac957610ac9615710565b6020026020010151600001516001600160a01b03166138aa9092919063ffffffff16565b610b1d83868381518110610b0357610b03615710565b6020026020010151848481518110610ac957610ac9615710565b80610b2781615755565b915050610aa8565b5050505050565b6101045460ff1615610b5b576040516313d0ff5960e31b815260040160405180910390fd5b600260c9541415610b7e5760405162461bcd60e51b8152600401610646906157e5565b600260c95582610ba4576040516324171d7360e01b815260048101849052602401610646565b6101125433600090815260fc60205260408120549091610bc39161581c565b9050428110610be8576040516353d5558560e01b815260048101829052602401610646565b60ff54604080516318160ddd60e01b815290516000926001600160a01b0316916318160ddd916004808301926020929190829003018186803b158015610c2d57600080fd5b505afa158015610c41573d6000803e3d6000fd5b505050506040513d601f19601f82011682018060405250810190610c659190615726565b9050600080610c726117e4565b92505091506000612710806032610c89919061581c565b6305f5e100610c98858c6157a9565b610ca29190615770565b610cac91906157a9565b610cb69190615770565b9050600061271061010d60010154612710610cd19190615792565b6305f5e100610ce0868d6157a9565b610cea9190615770565b610cf491906157a9565b610cfe9190615770565b60ff5460405163079cc67960e41b81529192506001600160a01b0316906379cc679090610d319033908d90600401615834565b600060405180830381600087803b158015610d4b57600080fd5b505af1158015610d5f573d6000803e3d6000fd5b50505050600060fb600081548110610d7957610d79615710565b600091825260208083206040805160808101825260039490940290910180546001600160a01b039081168552600182015490811693850193909352600160a01b90920460ff16908301526002015460608201529150610dd661070d565b90506000878c83600081518110610def57610def615710565b6020026020010151610e0191906157a9565b610e0b9190615770565b9050610e5c6040518060c00160405280600280811115610e2d57610e2d61584d565b8152602001610e3c8d8f615863565b81526020018481526020018981526020018e81526020018a8152506139f4565b81600081518110610e6f57610e6f615710565b602002602001015183600001516001600160a01b03166370a08231306040518263ffffffff1660e01b8152600401610ea791906154e9565b60206040518083038186803b158015610ebf57600080fd5b505afa158015610ed3573d6000803e3d6000fd5b505050506040513d601f19601f82011682018060405250810190610ef79190615726565b610f019190615792565b610f0b908261581c565b9050612710610f18613a9b565b610f2290836157a9565b610f2c9190615770565b610f369082615792565b905060008360600151610f4c856020015161068d565b610f5690846157a9565b610f609190615770565b905085811115610f8d576040516354ba98a560e11b81526004810182905260248101879052604401610646565b84811015610fb857604051635faadc9360e11b81526004810182905260248101869052604401610646565b8351610fce906001600160a01b03163384613bcb565b60408051838152602081018f90527fe3829d5463fae0f748d927f86f762044188c9ce53d91a394eb93e98354cc3092910160405180910390a15050600160c9555050505050505050505050565b6001600160a01b038116331461108b5760405162461bcd60e51b815260206004820152602f60248201527f416363657373436f6e74726f6c3a2063616e206f6e6c792072656e6f756e636560448201526e103937b632b9903337b91039b2b63360891b6064820152608401610646565b6110958282613bea565b5050565b604080516080810182526000808252602082015260609181018290528181019190915260408051608081018252610104805460ff80821615158452610100909104166020830152610105805492939192918401916110f6906158de565b80601f0160208091040260200160405190810160405280929190818152602001828054611122906158de565b801561116f5780601f106111445761010080835404028352916020019161116f565b820191906000526020600020905b81548152906001019060200180831161115257829003601f168201915b50505050508152602001600282018054611188906158de565b80601f01602080910402602001604051908101604052809291908181526020018280546111b4906158de565b80156112015780601f106111d657610100808354040283529160200191611201565b820191906000526020600020905b8154815290600101906020018083116111e457829003601f168201915b505050505081525050905090565b600061121a8161387b565b8151610104805460208086015161ffff1990921693151561ff0019169390931761010060ff909216919091021781556040840151805185936112629261010592910190614df4565b5060608201518051610b2f916002840191602090910190614df4565b60fb818154811061128e57600080fd5b60009182526020909120600390910201805460018201546002909201546001600160a01b03918216935090821691600160a01b900460ff169084565b61130a6040518060e00160405280600081526020016000815260200160008152602001600081526020016000815260200160008152602001600081525090565b506040805160e08101825261010d54815261010e54602082015261010f54918101919091526101105460608201526101115460808201526101125460a08201526101135460c082015290565b6101045460ff161561137b576040516313d0ff5960e31b815260040160405180910390fd5b600080516020615d2d8339815191526113938161387b565b600260c95414156113b65760405162461bcd60e51b8152600401610646906157e5565b600260c9556000806113c6611b67565b909250905060006305f5e1006113dc83856157a9565b6113e69190615770565b610113549091508110156114105760405163835e91b160e01b815260048101829052602401610646565b61010a546000906127109061142590866157a9565b61142f9190615770565b9050600061143d8286615792565b60fd54604051630e9f05fb60e21b81526000600482018190529293506001600160a01b0390911690633a7c17ec9060240160206040518083038186803b15801561148657600080fd5b505afa15801561149a573d6000803e3d6000fd5b505050506040513d601f19601f820116820180604052508101906114be91906157c8565b9050811561152b5760ff546040516340c10f1960e01b81526001600160a01b03909116906340c10f19906114f89084908690600401615834565b600060405180830381600087803b15801561151257600080fd5b505af1158015611526573d6000803e3d6000fd5b505050505b821561159b5760ff54610107546040516340c10f1960e01b81526001600160a01b03928316926340c10f1992611568929116908790600401615834565b600060405180830381600087803b15801561158257600080fd5b505af1158015611596573d6000803e3d6000fd5b505050505b42610103556040517fc5d64fc761f9b3655032564333e112575ff87c7d50ab506126d6b5d587536038906115d490339085908790615919565b60405180910390a15050600160c9555050505050565b60006115f58161387b565b60ff54604051635948ab6360e01b815283151560048201526001600160a01b0390911690635948ab6390602401600060405180830381600087803b15801561163c57600080fd5b505af1158015611650573d6000803e3d6000fd5b505050505050565b6116836040518060800160405280600081526020016060815260200160008152602001600081525090565b61010060405180608001604052908160008201548152602001600182018054806020026020016040519081016040528092919081815260200182805480156116ea57602002820191906000526020600020905b8154815260200190600101908083116116d6575b5050505050815260200160028201548152602001600382015481525050905090565b61174e6040518060c0016040528060006001600160a01b0316815260200160008152602001600081526020016000815260200160008152602001600081525090565b506040805160c081018252610107546001600160a01b03168152610108546020820152610109549181019190915261010a54606082015261010b54608082015261010c5460a082015290565b60008281526097602052604081206117b29083613c0c565b9392505050565b60009182526065602090815260408084206001600160a01b0393909316845291905290205460ff1690565b6060600080600060fb805480602002602001604051908101604052809291908181526020016000905b82821015611875576000848152602090819020604080516080810182526003860290920180546001600160a01b03908116845260018083015491821685870152600160a01b90910460ff1692840192909252600201546060830152908352909201910161180d565b50508251929350829150506001600160401b0381111561189757611897614f2b565b6040519080825280602002602001820160405280156118c0578160200160208202803683370190505b50945060005b818110156119e15760008382815181106118e2576118e2615710565b60200260200101519050600081600001516001600160a01b03166370a08231306040518263ffffffff1660e01b815260040161191e91906154e9565b60206040518083038186803b15801561193657600080fd5b505afa15801561194a573d6000803e3d6000fd5b505050506040513d601f19601f8201168201806040525081019061196e9190615726565b905080156119cc576000826060015161198a846020015161068d565b61199490846157a9565b61199e9190615770565b9050808985815181106119b3576119b3615710565b60209081029190910101526119c8818961581c565b9750505b505080806119d990615755565b9150506118c6565b5060005b81811015611ab65784611a3557610101805482908110611a0757611a07615710565b9060005260206000200154868281518110611a2457611a24615710565b602002602001018181525050611aa4565b6305f5e100612710866305f5e100898581518110611a5557611a55615710565b6020026020010151611a6791906157a9565b611a719190615770565b611a7b91906157a9565b611a859190615770565b868281518110611a9757611a97615710565b6020026020010181815250505b80611aae81615755565b9150506119e5565b5060ff54604080516318160ddd60e01b815290516000926001600160a01b0316916318160ddd916004808301926020929190829003018186803b158015611afc57600080fd5b505afa158015611b10573d6000803e3d6000fd5b505050506040513d601f19601f82011682018060405250810190611b349190615726565b90508015611b5a5780611b4b6305f5e100876157a9565b611b559190615770565b611b5d565b60005b9350505050909192565b60008060006170806101006003015442611b819190615792565b611b8b9190615770565b9050611b956117e4565b9350505080611ba75760009250509091565b60ff54604080516318160ddd60e01b815290516000926001600160a01b0316916318160ddd916004808301926020929190829003018186803b158015611bec57600080fd5b505afa158015611c00573d6000803e3d6000fd5b505050506040513d601f19601f82011682018060405250810190611c249190615726565b61010954909150620f424090611c3a83856157a9565b611c4491906157a9565b611c4e9190615770565b935050509091565b6101045460ff1615611c7b576040516313d0ff5960e31b815260040160405180910390fd5b600260c9541415611c9e5760405162461bcd60e51b8152600401610646906157e5565b600260c955600080516020615d4d833981519152611cbb8161387b565b6101115461010254600091611ccf9161581c565b9050428110611cf4576040516353d5558560e01b815260048101829052602401610646565b6000611cfe61070d565b90506000805b8751811015611d4657878181518110611d1f57611d1f615710565b602002602001015182611d32919061581c565b915080611d3e81615755565b915050611d04565b506127108114611d6c576040516335ece97360e01b815260048101829052602401610646565b6000611d766117e4565b50509050611dcc6040518060c0016040528060016002811115611d9b57611d9b61584d565b8152602001611daa898b615863565b81526020018581526020018581526020016000815260200160008152506139f4565b60005b8851811015611e2757888181518110611dea57611dea615710565b60200260200101516101006001018281548110611e0957611e09615710565b60009182526020909120015580611e1f81615755565b915050611dcf565b5042610102556040517f2e3e78ec7fafe8556e86e3facbfa811ce2ad2b4a23950229fb433e1eef381c9290611e5f9083908b9061593a565b60405180910390a15050600160c955505050505050565b600081815260976020526040812061060690613c18565b6000611e996001613c22565b90508015611eb1576000805461ff0019166101001790555b611eb9613caf565b611ec1613ce0565b60fd80546001600160a01b03191633908117909155611ee290600090613d07565b611f09600080516020615d4d833981519152611f0460a0870160808801615031565b613d07565b611f2b600080516020615d2d833981519152611f0460a0870160808801615031565b611fc6600080516020615d2d83398151915260fd60000160009054906101000a90046001600160a01b03166001600160a01b0316634bdaeac16040518163ffffffff1660e01b815260040160206040518083038186803b158015611f8e57600080fd5b505afa158015611fa2573d6000803e3d6000fd5b505050506040513d601f19601f82011682018060405250810190611f0491906157c8565b60fd546040805163bfb8280960e01b815290516000926001600160a01b03169163bfb82809916004808301926020929190829003018186803b15801561200b57600080fd5b505afa15801561201f573d6000803e3d6000fd5b505050506040513d601f19601f8201168201806040525081019061204391906157c8565b9050600061205082613d11565b90506001600160a01b038116631624f6c661206e604089018961595f565b61207b60608b018b61595f565b60086040518663ffffffff1660e01b815260040161209d9594939291906159ce565b600060405180830381600087803b1580156120b757600080fd5b505af11580156120cb573d6000803e3d6000fd5b505060fd54604080516306ec4be960e41b81529051600094506001600160a01b039092169250636ec4be90916004808301926020929190829003018186803b15801561211657600080fd5b505afa15801561212a573d6000803e3d6000fd5b505050506040513d601f19601f8201168201806040525081019061214e91906157c8565b905060005b88811015612515576040805160808101825260008082526020820181905291810182905260608101829052903363d10cf5698d8d8681811061219757612197615710565b90506020020160208101906121ac9190615031565b6040518263ffffffff1660e01b81526004016121c891906154e9565b60206040518083038186803b1580156121e057600080fd5b505afa1580156121f4573d6000803e3d6000fd5b505050506040513d601f19601f8201168201806040525081019061221891906157c8565b90506001600160a01b038116612241576040516304fffbb760e41b815260040160405180910390fd5b6000816001600160a01b031663313ce5676040518163ffffffff1660e01b815260040160206040518083038186803b15801561227c57600080fd5b505afa158015612290573d6000803e3d6000fd5b505050506040513d601f19601f820116820180604052508101906122b49190615a0b565b90508060ff166008146122da57604051632bdd753960e01b815260040160405180910390fd5b8c8c858181106122ec576122ec615710565b90506020020160208101906123019190615031565b6001600160a01b031663313ce5676040518163ffffffff1660e01b815260040160206040518083038186803b15801561233957600080fd5b505afa15801561234d573d6000803e3d6000fd5b505050506040513d601f19601f820116820180604052508101906123719190615a0b565b61237c90600a615b0c565b60608401528c8c8581811061239357612393615710565b90506020020160208101906123a89190615031565b6001600160a01b039081168452821660208401526123fa856000198f8f888181106123d5576123d5615710565b90506020020160208101906123ea9190615031565b6001600160a01b031691906138aa565b60ff8082166040850190815260fb8054600181018255600091909152855160039091027f3e7257b7272bb46d49cd6019b04ddee20da7c0cb13f7c1ec3391291b2ccebabc810180546001600160a01b039384166001600160a01b031990911617905560208701517f3e7257b7272bb46d49cd6019b04ddee20da7c0cb13f7c1ec3391291b2ccebabd820180549451909516600160a01b026001600160a81b03199094169216919091179190911790915560608401517f3e7257b7272bb46d49cd6019b04ddee20da7c0cb13f7c1ec3391291b2ccebabe9091015561010184156124e45760006124e8565b6127105b815460018101835560009283526020909220909101555082915061250d905081615755565b915050612153565b5060ff80546001600160a01b0319166001600160a01b0384161790554360fe556305f5e100610100554261010281905561010355612553878061595f565b6125609161010591614e78565b5061256e602088018861595f565b61257b9161010691614e78565b5061258e61059b36889003880188615624565b6125a061021736879003870187614f99565b5050508015611650576000805461ff0019169055604051600181527f7f26b83ff96e1f2b6a682f133852f6798a09c465da95921460cefb3847402498906020015b60405180910390a1505050505050565b60008281526065602052604090206001015461260c8161387b565b6109848383613bea565b60006126218161387b565b60198260200151108061263957506101f48260200151115b1561265f57816020015160405163031dc50960e61b815260040161064691815260200190565b6113888260800151111561268e57816080015160405163031dc50960e61b815260040161064691815260200190565b611d4c826060015111156126bd57816060015160405163031dc50960e61b815260040161064691815260200190565b611d4c8260a0015111156126ec578160a0015160405163031dc50960e61b815260040161064691815260200190565b60648260400151111561271a57816040015160405163031dc50960e61b815260040161064691815260200190565b6040820151610109541080156127305742610103555b5050805161010780546001600160a01b0319166001600160a01b03909216919091179055602081015161010855604081015161010955606081015161010a55608081015161010b5560a0015161010c55565b600260c95414156127a55760405162461bcd60e51b8152600401610646906157e5565b600260c955806127cb576040516324171d7360e01b815260048101829052602401610646565b6101125433600090815260fc602052604081205490916127ea9161581c565b905042811061280f576040516353d5558560e01b815260048101829052602401610646565b60006128196117e4565b5060ff54604080516318160ddd60e01b815290519294506001600160a01b03909116925060009183916318160ddd916004808301926020929190829003018186803b15801561286757600080fd5b505afa15801561287b573d6000803e3d6000fd5b505050506040513d601f19601f8201168201806040525081019061289f9190615726565b90506000816128ae87866157a9565b6128b89190615770565b60405163079cc67960e41b81529091506001600160a01b038416906379cc6790906128e99033908a90600401615834565b600060405180830381600087803b15801561290357600080fd5b505af1158015612917573d6000803e3d6000fd5b505060fd54604080516305a9e07360e01b81529051600094506001600160a01b0390921692506305a9e073916004808301926020929190829003018186803b15801561296257600080fd5b505afa158015612976573d6000803e3d6000fd5b505050506040513d601f19601f8201168201806040525081019061299a91906157c8565b6001600160a01b031663c414b089336040518263ffffffff1660e01b81526004016129c591906154e9565b60206040518083038186803b1580156129dd57600080fd5b505afa1580156129f1573d6000803e3d6000fd5b505050506040513d601f19601f82011682018060405250810190612a159190615726565b90506000612710612a268382615792565b61010854612a3491906157a9565b612a3e9190615770565b90506000612a4b60fb5490565b905060005b81811015612b8757600060fb8281548110612a6d57612a6d615710565b60009182526020909120600390910201546040516370a0823160e01b81526001600160a01b03909116906370a0823190612aab9030906004016154e9565b60206040518083038186803b158015612ac357600080fd5b505afa158015612ad7573d6000803e3d6000fd5b505050506040513d601f19601f82011682018060405250810190612afb9190615726565b9050600087612b0a8d846157a9565b612b149190615770565b9050612710612b2386836157a9565b612b2d9190615770565b612b379082615792565b9050612b72338260fb8681548110612b5157612b51615710565b60009182526020909120600390910201546001600160a01b03169190613bcb565b50508080612b7f90615755565b915050612a50565b5060408051858152602081018b90527fe3829d5463fae0f748d927f86f762044188c9ce53d91a394eb93e98354cc3092910160405180910390a15050600160c95550505050505050565b600080516020615d4d833981519152612be98161387b565b6000612bf483613da9565b5090508015612c1657604051634347faeb60e11b815260040160405180910390fd5b60408051608081018252600080825260208201819052918101829052606081019190915260fd5460405163d10cf56960e01b81526000916001600160a01b03169063d10cf56990612c6b9088906004016154e9565b60206040518083038186803b158015612c8357600080fd5b505afa158015612c97573d6000803e3d6000fd5b505050506040513d601f19601f82011682018060405250810190612cbb91906157c8565b90506001600160a01b038116612ce4576040516304fffbb760e41b815260040160405180910390fd5b6000816001600160a01b031663313ce5676040518163ffffffff1660e01b815260040160206040518083038186803b158015612d1f57600080fd5b505afa158015612d33573d6000803e3d6000fd5b505050506040513d601f19601f82011682018060405250810190612d579190615a0b565b90508060ff16600814612d7d57604051632bdd753960e01b815260040160405180910390fd5b856001600160a01b031663313ce5676040518163ffffffff1660e01b815260040160206040518083038186803b158015612db657600080fd5b505afa158015612dca573d6000803e3d6000fd5b505050506040513d601f19601f82011682018060405250810190612dee9190615a0b565b612df990600a615b0c565b60608401526001600160a01b03808716845282811660208086019190915260fd54604080516306ec4be960e41b81529051612e9e949290921692636ec4be9092600480840193829003018186803b158015612e5357600080fd5b505afa158015612e67573d6000803e3d6000fd5b505050506040513d601f19601f82011682018060405250810190612e8b91906157c8565b6001600160a01b038816906000196138aa565b60ff808216604080860191825260fb8054600181810183556000928352885160039092027f3e7257b7272bb46d49cd6019b04ddee20da7c0cb13f7c1ec3391291b2ccebabc810180546001600160a01b039485166001600160a01b031990911617905560208a01517f3e7257b7272bb46d49cd6019b04ddee20da7c0cb13f7c1ec3391291b2ccebabd820180549751909816600160a01b026001600160a81b03199097169316929092179490941790945560608701517f3e7257b7272bb46d49cd6019b04ddee20da7c0cb13f7c1ec3391291b2ccebabe909401939093556101018054928301815583527f109ea3cebb188b9c1b9fc5bb3920be60dfdc8699098dff92f3d80daaca747689909101919091554261010255517fb38e19e04618f9502008311560587c597fe11e8867226353a0c01aab7e4df293906125e19088906154e9565b6101045460ff1615613008576040516313d0ff5960e31b815260040160405180910390fd5b600080516020615d2d8339815191526130208161387b565b600260c95414156130435760405162461bcd60e51b8152600401610646906157e5565b600260c955600080613053610846565b909250905060006305f5e10061306983856157a9565b6130739190615770565b6101135490915081101561309d5760405163835e91b160e01b815260048101829052602401610646565b61010c54600090612710906130b290866157a9565b6130bc9190615770565b905060006130ca8286615792565b60fd54604051630e9f05fb60e21b8152600160048201529192506000916001600160a01b0390911690633a7c17ec9060240160206040518083038186803b15801561311457600080fd5b505afa158015613128573d6000803e3d6000fd5b505050506040513d601f19601f8201168201806040525081019061314c91906157c8565b905081156131b95760ff546040516340c10f1960e01b81526001600160a01b03909116906340c10f19906131869084908690600401615834565b600060405180830381600087803b1580156131a057600080fd5b505af11580156131b4573d6000803e3d6000fd5b505050505b82156132295760ff54610107546040516340c10f1960e01b81526001600160a01b03928316926340c10f19926131f6929116908790600401615834565b600060405180830381600087803b15801561321057600080fd5b505af1158015613224573d6000803e3d6000fd5b505050505b6101008590556040517f183ca8edb5c44e45a247e0dd7736571c7f80df25d575966949426eaeddcf3300906115d490339085908790615919565b6101045460ff1615613288576040516313d0ff5960e31b815260040160405180910390fd5b600260c95414156132ab5760405162461bcd60e51b8152600401610646906157e5565b600260c9556000806132bb6117e4565b5091509150600060fb6000815481106132d6576132d6615710565b6000918252602080832060408051608081018252600390940290910180546001600160a01b03908116855260018201548082168686015260ff600160a01b9091048116868501526002909201546060860152905482516318160ddd60e01b8152925194965016926318160ddd92600480840193919291829003018186803b15801561336057600080fd5b505afa158015613374573d6000803e3d6000fd5b505050506040513d601f19601f820116820180604052508101906133989190615726565b90506000816133a857600061343c565b60ff546040516370a0823160e01b815283916001600160a01b0316906370a08231906133d89033906004016154e9565b60206040518083038186803b1580156133f057600080fd5b505afa158015613404573d6000803e3d6000fd5b505050506040513d601f19601f820116820180604052508101906134289190615726565b61343290866157a9565b61343c9190615770565b6101125433600090815260fc60205260408120549293509161345e919061581c565b9050600061271061347081603261581c565b8660600151613482886020015161068d565b61348c908e6157a9565b6134969190615770565b6134a091906157a9565b6134aa9190615770565b61010f549091508110156134d457604051630266752760e51b815260048101829052602401610646565b610110546134e2828561581c565b111561350e576134f2818461581c565b6040516395faf97b60e01b815260040161064691815260200190565b428210613531576040516353d5558560e01b815260048101839052602401610646565b61010d5461353f828861581c565b1061356a5761354e818761581c565b604051639f877d8760e01b815260040161064691815260200190565b60fd5460408051631fb96c0d60e31b815290516001600160a01b039092169163fdcb606891600480820192602092909190829003018186803b1580156135af57600080fd5b505afa1580156135c3573d6000803e3d6000fd5b505050506040513d601f19601f820116820180604052508101906135e791906157c8565b60405163a10cda9960e01b81523060048201523360248201526001600160a01b03919091169063a10cda999060440160206040518083038186803b15801561362e57600080fd5b505afa158015613642573d6000803e3d6000fd5b505050506040513d601f19601f820116820180604052508101906136669190615b1b565b613685573360405163472511eb60e11b815260040161064691906154e9565b600061368f61070d565b86519091506136a9906001600160a01b031633308e613e1f565b6040805160c081019091526136ea9080600081526020016136ca8c8e615863565b81526020018381526020018a81526020018d8152602001878152506139f4565b60006136f46117e4565b509150600090506137058983615792565b90508381111561373257604051636963bca560e01b81526004810185905260248101829052604401610646565b600087613740575080613758565b8961374b89846157a9565b6137559190615770565b90505b600081116137795760405163220328c760e11b815260040160405180910390fd5b33600081815260fc60205260409081902042905560ff5490516340c10f1960e01b81526001600160a01b03909116916340c10f19916137bd91908590600401615834565b600060405180830381600087803b1580156137d757600080fd5b505af11580156137eb573d6000803e3d6000fd5b505050507fa3af609bf46297028ce551832669030f9effef2b02606d02cbbcc40fe6b47c558e82604051613829929190918252602082015260400190565b60405180910390a15050600160c955505050505050505050505050565b60006001600160e01b03198216637965db0b60e01b148061060657506301ffc9a760e01b6001600160e01b0319831614610606565b6138858133613e5d565b50565b6138928282613ec1565b60008281526097602052604090206109849082613f47565b8015806139335750604051636eb1769f60e11b81523060048201526001600160a01b03838116602483015284169063dd62ed3e9060440160206040518083038186803b1580156138f957600080fd5b505afa15801561390d573d6000803e3d6000fd5b505050506040513d601f19601f820116820180604052508101906139319190615726565b155b61399e5760405162461bcd60e51b815260206004820152603660248201527f5361666545524332303a20617070726f76652066726f6d206e6f6e2d7a65726f60448201527520746f206e6f6e2d7a65726f20616c6c6f77616e636560501b6064820152608401610646565b6109848363095ea7b360e01b84846040516024016139bd929190615834565b60408051601f198184030181529190526020810180516001600160e01b03166001600160e01b031990931692909217909152613f5c565b60005b816020015151811015613a88576000806000613a4385602001518581518110613a2257613a22615710565b60200260200101518660000151876080015188606001518960a0015161402e565b925092509250613a7285602001518581518110613a6257613a62615710565b6020026020010151848484614394565b5050508080613a8090615755565b9150506139f7565b506138858160400151826000015161472c565b60008060fd60000160009054906101000a90046001600160a01b03166001600160a01b03166305a9e0736040518163ffffffff1660e01b815260040160206040518083038186803b158015613aef57600080fd5b505afa158015613b03573d6000803e3d6000fd5b505050506040513d601f19601f82011682018060405250810190613b2791906157c8565b6001600160a01b031663c414b089336040518263ffffffff1660e01b8152600401613b5291906154e9565b60206040518083038186803b158015613b6a57600080fd5b505afa158015613b7e573d6000803e3d6000fd5b505050506040513d601f19601f82011682018060405250810190613ba29190615726565b90506000612710613bb38382615792565b61010854613bc191906157a9565b6117b29190615770565b6109848363a9059cbb60e01b84846040516024016139bd929190615834565b613bf482826148c2565b60008281526097602052604090206109849082614929565b60006117b2838361493e565b6000610606825490565b60008054610100900460ff1615613c69578160ff166001148015613c455750303b155b613c615760405162461bcd60e51b815260040161064690615b38565b506000919050565b60005460ff808416911610613c905760405162461bcd60e51b815260040161064690615b38565b506000805460ff191660ff92909216919091179055600190565b919050565b600054610100900460ff16613cd65760405162461bcd60e51b815260040161064690615b86565b613cde614968565b565b600054610100900460ff16613cde5760405162461bcd60e51b815260040161064690615b86565b6110958282613888565b6000604051733d602d80600a3d3981f3363d3d373d3d3d363d7360601b81528260601b60148201526e5af43d82803e903d91602b57fd5bf360881b60288201526037816000f09150506001600160a01b038116613caa5760405162461bcd60e51b8152602060048201526016602482015275115490cc4c4d8dce8818dc99585d194819985a5b195960521b6044820152606401610646565b60008060005b60fb54811015613e1357836001600160a01b031660fb8281548110613dd657613dd6615710565b60009182526020909120600390910201546001600160a01b03161415613e0157600194909350915050565b80613e0b81615755565b915050613daf565b50600093849350915050565b6040516001600160a01b0380851660248301528316604482015260648101829052613e579085906323b872dd60e01b906084016139bd565b50505050565b613e6782826117b9565b61109557613e7f816001600160a01b03166014614996565b613e8a836020614996565b604051602001613e9b929190615bd1565b60408051601f198184030181529082905262461bcd60e51b825261064691600401615c40565b613ecb82826117b9565b6110955760008281526065602090815260408083206001600160a01b03851684529091529020805460ff19166001179055613f033390565b6001600160a01b0316816001600160a01b0316837f2f8788117e7eff1d82e926ec794901d17c78024a50270940304540a733656f0d60405160405180910390a45050565b60006117b2836001600160a01b038416614b31565b6000613fb1826040518060400160405280602081526020017f5361666545524332303a206c6f772d6c6576656c2063616c6c206661696c6564815250856001600160a01b0316614b809092919063ffffffff16565b8051909150156109845780806020019051810190613fcf9190615b1b565b6109845760405162461bcd60e51b815260206004820152602a60248201527f5361666545524332303a204552433230206f7065726174696f6e20646964206e6044820152691bdd081cdd58d8d9595960b21b6064820152608401610646565b60fd54604080516377bb1eb960e01b815290516000928392839283926001600160a01b0316916377bb1eb9916004808301926020929190829003018186803b15801561407957600080fd5b505afa15801561408d573d6000803e3d6000fd5b505050506040513d601f19601f820116820180604052508101906140b191906157c8565b90506000806000836001600160a01b031663ef4592fb8d6040518263ffffffff1660e01b81526004016140e49190615c40565b60606040518083038186803b1580156140fc57600080fd5b505afa158015614110573d6000803e3d6000fd5b505050506040513d601f19601f820116820180604052508101906141349190615c53565b925092509250600061414584613da9565b985090508061416957836040516340d1d8df60e11b815260040161064691906154e9565b61417283613da9565b975090508061419657826040516340d1d8df60e11b815260040161064691906154e9565b600060fb6000815481106141ac576141ac615710565b600091825260208220600390910201546001600160a01b031691508d60028111156141d9576141d961584d565b141561427557806001600160a01b0316856001600160a01b03161461421157604051630cd9d93d60e21b815260040160405180910390fd5b60006127108c8a8151811061422857614228615710565b602002602001015160fa61423c919061581c565b614246908f6157a9565b6142509190615770565b90508084111561427357604051630cd9d93d60e21b815260040160405180910390fd5b505b60028d60028111156142895761428961584d565b141561438157806001600160a01b0316846001600160a01b0316146142c157604051635726a94360e01b815260040160405180910390fd5b6040516370a0823160e01b81526000906001600160a01b038716906370a08231906142f09030906004016154e9565b60206040518083038186803b15801561430857600080fd5b505afa15801561431c573d6000803e3d6000fd5b505050506040513d601f19601f820116820180604052508101906143409190615726565b905060008b828f61435191906157a9565b61435b9190615770565b90508085111561437e57604051632b9fe05960e21b815260040160405180910390fd5b50505b5090945050505050955095509592505050565b60fd546040805163c31c9c0760e01b815290516000926001600160a01b03169163c31c9c07916004808301926020929190829003018186803b1580156143d957600080fd5b505afa1580156143ed573d6000803e3d6000fd5b505050506040513d601f19601f8201168201806040525081019061441191906157c8565b9050600060fb858154811061442857614428615710565b600091825260208083206040805160808101825260039490940290910180546001600160a01b039081168552600182015490811693850193909352600160a01b90920460ff169083015260020154606082015260fb8054919350908690811061449357614493615710565b6000918252602080832060408051608081018252600390940290910180546001600160a01b0390811680865260018301549182169486019490945260ff600160a01b9091041684830152600201546060840152516370a0823160e01b8152919350906370a08231906145099030906004016154e9565b60206040518083038186803b15801561452157600080fd5b505afa158015614535573d6000803e3d6000fd5b505050506040513d601f19601f820116820180604052508101906145599190615726565b9050600080856001600160a01b03168a6040516145769190615c96565b6000604051808303816000865af19150503d80600081146145b3576040519150601f19603f3d011682016040523d82523d6000602084013e6145b8565b606091505b5091509150816145df578981604051635ba5f0c760e11b8152600401610646929190615cb2565b60008385600001516001600160a01b03166370a08231306040518263ffffffff1660e01b815260040161461291906154e9565b60206040518083038186803b15801561462a57600080fd5b505afa15801561463e573d6000803e3d6000fd5b505050506040513d601f19601f820116820180604052508101906146629190615726565b61466c9190615792565b905060008660600151614682886020015161068d565b61468c908b6157a9565b6146969190615770565b9050600086606001516146ac886020015161068d565b6146b690856157a9565b6146c09190615770565b9050600061271061010d600101546127106146db9190615792565b6146e590856157a9565b6146ef9190615770565b90508082101561471c57604051636963bca560e01b81526004810184905260248101839052604401610646565b5050505050505050505050505050565b600061473760fb5490565b9050600061474361070d565b905060008360028111156147595761475961584d565b14156147d75760005b828110156147d15784818151811061477c5761477c615710565b602002602001015182828151811061479657614796615710565b602002602001015110156147bf57836040516370acc9c360e01b81526004016106469190615cd7565b806147c981615755565b915050614762565b50613e57565b60018360028111156147eb576147eb61584d565b14156147f657613e57565b600283600281111561480a5761480a61584d565b14156148825760015b828110156147d15784818151811061482d5761482d615710565b602002602001015182828151811061484757614847615710565b6020026020010151111561487057836040516370acc9c360e01b81526004016106469190615cd7565b8061487a81615755565b915050614813565b60405162461bcd60e51b8152602060048201526015602482015274556e657870656374656420416374696f6e5479706560581b6044820152606401610646565b6148cc82826117b9565b156110955760008281526065602090815260408083206001600160a01b0385168085529252808320805460ff1916905551339285917ff6391f5c32d9c69d2a47ea670b442974b53935d1edc7fd64eb21e047a839171b9190a45050565b60006117b2836001600160a01b038416614b97565b600082600001828154811061495557614955615710565b9060005260206000200154905092915050565b600054610100900460ff1661498f5760405162461bcd60e51b815260040161064690615b86565b600160c955565b606060006149a58360026157a9565b6149b090600261581c565b6001600160401b038111156149c7576149c7614f2b565b6040519080825280601f01601f1916602001820160405280156149f1576020820181803683370190505b509050600360fc1b81600081518110614a0c57614a0c615710565b60200101906001600160f81b031916908160001a905350600f60fb1b81600181518110614a3b57614a3b615710565b60200101906001600160f81b031916908160001a9053506000614a5f8460026157a9565b614a6a90600161581c565b90505b6001811115614ae2576f181899199a1a9b1b9c1cb0b131b232b360811b85600f1660108110614a9e57614a9e615710565b1a60f81b828281518110614ab457614ab4615710565b60200101906001600160f81b031916908160001a90535060049490941c93614adb81615cff565b9050614a6d565b5083156117b25760405162461bcd60e51b815260206004820181905260248201527f537472696e67733a20686578206c656e67746820696e73756666696369656e746044820152606401610646565b6000818152600183016020526040812054614b7857508154600181810184556000848152602080822090930184905584548482528286019093526040902091909155610606565b506000610606565b6060614b8f8484600085614c8a565b949350505050565b60008181526001830160205260408120548015614c80576000614bbb600183615792565b8554909150600090614bcf90600190615792565b9050818114614c34576000866000018281548110614bef57614bef615710565b9060005260206000200154905080876000018481548110614c1257614c12615710565b6000918252602080832090910192909255918252600188019052604090208390555b8554869080614c4557614c45615d16565b600190038181906000526020600020016000905590558560010160008681526020019081526020016000206000905560019350505050610606565b6000915050610606565b606082471015614ceb5760405162461bcd60e51b815260206004820152602660248201527f416464726573733a20696e73756666696369656e742062616c616e636520666f6044820152651c8818d85b1b60d21b6064820152608401610646565b6001600160a01b0385163b614d425760405162461bcd60e51b815260206004820152601d60248201527f416464726573733a2063616c6c20746f206e6f6e2d636f6e74726163740000006044820152606401610646565b600080866001600160a01b03168587604051614d5e9190615c96565b60006040518083038185875af1925050503d8060008114614d9b576040519150601f19603f3d011682016040523d82523d6000602084013e614da0565b606091505b5091509150614db0828286614dbb565b979650505050505050565b60608315614dca5750816117b2565b825115614dda5782518084602001fd5b8160405162461bcd60e51b81526004016106469190615c40565b828054614e00906158de565b90600052602060002090601f016020900481019282614e225760008555614e68565b82601f10614e3b57805160ff1916838001178555614e68565b82800160010185558215614e68579182015b82811115614e68578251825591602001919060010190614e4d565b50614e74929150614eec565b5090565b828054614e84906158de565b90600052602060002090601f016020900481019282614ea65760008555614e68565b82601f10614ebf5782800160ff19823516178555614e68565b82800160010185558215614e68579182015b82811115614e68578235825591602001919060010190614ed1565b5b80821115614e745760008155600101614eed565b600060208284031215614f1357600080fd5b81356001600160e01b0319811681146117b257600080fd5b634e487b7160e01b600052604160045260246000fd5b604051608081016001600160401b0381118282101715614f6357614f63614f2b565b60405290565b604051601f8201601f191681016001600160401b0381118282101715614f9157614f91614f2b565b604052919050565b600060e08284031215614fab57600080fd5b60405160e081018181106001600160401b0382111715614fcd57614fcd614f2b565b8060405250823581526020830135602082015260408301356040820152606083013560608201526080830135608082015260a083013560a082015260c083013560c08201528091505092915050565b6001600160a01b038116811461388557600080fd5b60006020828403121561504357600080fd5b81356117b28161501c565b600081518084526020808501945080840160005b8381101561507e57815187529582019590820190600101615062565b509495945050505050565b6020815260006117b2602083018461504e565b6000602082840312156150ae57600080fd5b5035919050565b600080604083850312156150c857600080fd5b8235915060208301356150da8161501c565b809150509250929050565b60006001600160401b038211156150fe576150fe614f2b565b5060051b60200190565b600082601f83011261511957600080fd5b8135602061512e615129836150e5565b614f69565b82815260059290921b8401810191818101908684111561514d57600080fd5b8286015b848110156151685780358352918301918301615151565b509695505050505050565b60006020828403121561518557600080fd5b81356001600160401b0381111561519b57600080fd5b614b8f84828501615108565b60008083601f8401126151b957600080fd5b5081356001600160401b038111156151d057600080fd5b6020830191508360208260051b85010111156151eb57600080fd5b9250929050565b60008060006040848603121561520757600080fd5b8335925060208401356001600160401b0381111561522457600080fd5b615230868287016151a7565b9497909650939450505050565b60005b83811015615258578181015183820152602001615240565b83811115613e575750506000910152565b6000815180845261528181602086016020860161523d565b601f01601f19169290920160200192915050565b6020815281511515602082015260ff602083015116604082015260006040830151608060608401526152ca60a0840182615269565b90506060840151601f198483030160808501526152e78282615269565b95945050505050565b801515811461388557600080fd5b60ff8116811461388557600080fd5b60006001600160401b0383111561532657615326614f2b565b615339601f8401601f1916602001614f69565b905082815283838301111561534d57600080fd5b828260208301376000602084830101529392505050565b600082601f83011261537557600080fd5b6117b28383356020850161530d565b60006020828403121561539657600080fd5b81356001600160401b03808211156153ad57600080fd5b90830190608082860312156153c157600080fd5b6153c9614f41565b82356153d4816152f0565b815260208301356153e4816152fe565b60208201526040830135828111156153fb57600080fd5b61540787828601615364565b60408301525060608301358281111561541f57600080fd5b61542b87828601615364565b60608301525095945050505050565b60006020828403121561544c57600080fd5b81356117b2816152f0565b60208082528251828201528281015160806040840152805160a0840181905260009291820190839060c08601905b808310156154a55783518252928401926001929092019190840190615485565b5060408701516060870152606087015160808701528094505050505092915050565b600080604083850312156154da57600080fd5b50508035926020909101359150565b6001600160a01b0391909116815260200190565b606081526000615510606083018661504e565b60208301949094525060400152919050565b60008060006040848603121561553757600080fd5b83356001600160401b038082111561554e57600080fd5b61555a87838801615108565b9450602086013591508082111561557057600080fd5b50615230868287016151a7565b60008060008060008587036101e081121561559757600080fd5b86356001600160401b03808211156155ae57600080fd5b6155ba8a838b016151a7565b909850965060208901359150808211156155d357600080fd5b50870160a0818a0312156155e657600080fd5b935060c0603f19820112156155fa57600080fd5b60408701925060e060ff198201121561561257600080fd5b50610100860190509295509295909350565b600060c0828403121561563657600080fd5b60405160c081018181106001600160401b038211171561565857615658614f2b565b60405282356156668161501c565b808252506020830135602082015260408301356040820152606083013560608201526080830135608082015260a083013560a08201528091505092915050565b805169ffffffffffffffffffff81168114613caa57600080fd5b600080600080600060a086880312156156d857600080fd5b6156e1866156a6565b9450602086015193506040860151925060608601519150615704608087016156a6565b90509295509295909350565b634e487b7160e01b600052603260045260246000fd5b60006020828403121561573857600080fd5b5051919050565b634e487b7160e01b600052601160045260246000fd5b60006000198214156157695761576961573f565b5060010190565b60008261578d57634e487b7160e01b600052601260045260246000fd5b500490565b6000828210156157a4576157a461573f565b500390565b60008160001904831182151516156157c3576157c361573f565b500290565b6000602082840312156157da57600080fd5b81516117b28161501c565b6020808252601f908201527f5265656e7472616e637947756172643a207265656e7472616e742063616c6c00604082015260600190565b6000821982111561582f5761582f61573f565b500190565b6001600160a01b03929092168252602082015260400190565b634e487b7160e01b600052602160045260246000fd5b6000615871615129846150e5565b80848252602080830192508560051b85013681111561588f57600080fd5b855b818110156107015780356001600160401b038111156158b05760008081fd5b870136601f8201126158c25760008081fd5b6158d036823586840161530d565b865250938201938201615891565b600181811c908216806158f257607f821691505b6020821081141561591357634e487b7160e01b600052602260045260246000fd5b50919050565b6001600160a01b039390931683526020830191909152604082015260600190565b60408152600061594d604083018561504e565b82810360208401526152e7818561504e565b6000808335601e1984360301811261597657600080fd5b8301803591506001600160401b0382111561599057600080fd5b6020019150368190038213156151eb57600080fd5b81835281816020850137506000828201602090810191909152601f909101601f19169091010190565b6060815260006159e26060830187896159a5565b82810360208401526159f58186886159a5565b91505060ff831660408301529695505050505050565b600060208284031215615a1d57600080fd5b81516117b2816152fe565b600181815b80851115615a63578160001904821115615a4957615a4961573f565b80851615615a5657918102915b93841c9390800290615a2d565b509250929050565b600082615a7a57506001610606565b81615a8757506000610606565b8160018114615a9d5760028114615aa757615ac3565b6001915050610606565b60ff841115615ab857615ab861573f565b50506001821b610606565b5060208310610133831016604e8410600b8410161715615ae6575081810a610606565b615af08383615a28565b8060001904821115615b0457615b0461573f565b029392505050565b60006117b260ff841683615a6b565b600060208284031215615b2d57600080fd5b81516117b2816152f0565b6020808252602e908201527f496e697469616c697a61626c653a20636f6e747261637420697320616c72656160408201526d191e481a5b9a5d1a585b1a5e995960921b606082015260800190565b6020808252602b908201527f496e697469616c697a61626c653a20636f6e7472616374206973206e6f74206960408201526a6e697469616c697a696e6760a81b606082015260800190565b76020b1b1b2b9b9a1b7b73a3937b61d1030b1b1b7bab73a1604d1b815260008351615c0381601785016020880161523d565b7001034b99036b4b9b9b4b733903937b6329607d1b6017918401918201528351615c3481602884016020880161523d565b01602801949350505050565b6020815260006117b26020830184615269565b600080600060608486031215615c6857600080fd5b8351615c738161501c565b6020850151909350615c848161501c565b80925050604084015190509250925092565b60008251615ca881846020870161523d565b9190910192915050565b604081526000615cc56040830185615269565b82810360208401526152e78185615269565b6020810160038310615cf957634e487b7160e01b600052602160045260246000fd5b91905290565b600081615d0e57615d0e61573f565b506000190190565b634e487b7160e01b600052603160045260246000fdfe3fc733b4d20d27a28452ddf0e9351aced28242fe03389a653cdb783955316b9b17a8e30262c1f919c33056d877a3c22b95c2f5e4dac44683c1c2323cd79fbdb0a2646970667358221220e55a7547be91c130eedee208143c1e1ea56da6c27366e95559a968a4aa27e79d64736f6c63430008080033",
  "linkReferences": {},
  "deployedLinkReferences": {}
}